{"contracts/DocumentVerification.sol":{"DocumentVerification":{"abi":[{"anonymous":false,"inputs":[{"indexed":true,"internalType":"string","name":"documentHash","type":"string"},{"indexed":true,"internalType":"address","name":"owner","type":"address"},{"indexed":false,"internalType":"bool","name":"isValid","type":"bool"},{"indexed":false,"internalType":"uint256","name":"timestamp","type":"uint256"}],"name":"DocumentVerified","type":"event"},{"inputs":[{"internalType":"string","name":"","type":"string"}],"name":"documents","outputs":[{"internalType":"string","name":"documentHash","type":"string"},{"internalType":"address","name":"owner","type":"address"},{"internalType":"uint256","name":"timestamp","type":"uint256"},{"internalType":"bool","name":"isValid","type":"bool"},{"internalType":"string","name":"verificationDetails","type":"string"}],"stateMutability":"view","type":"function"},{"inputs":[{"internalType":"string","name":"documentHash","type":"string"}],"name":"getDocument","outputs":[{"components":[{"internalType":"string","name":"documentHash","type":"string"},{"internalType":"address","name":"owner","type":"address"},{"internalType":"uint256","name":"timestamp","type":"uint256"},{"internalType":"bool","name":"isValid","type":"bool"},{"internalType":"string","name":"verificationDetails","type":"string"}],"internalType":"struct DocumentVerification.Document","name":"","type":"tuple"}],"stateMutability":"view","type":"function"},{"inputs":[{"internalType":"address","name":"user","type":"address"}],"name":"getUserDocuments","outputs":[{"internalType":"string[]","name":"","type":"string[]"}],"stateMutability":"view","type":"function"},{"inputs":[{"internalType":"address","name":"","type":"address"},{"internalType":"uint256","name":"","type":"uint256"}],"name":"userDocuments","outputs":[{"internalType":"string","name":"","type":"string"}],"stateMutability":"view","type":"function"},{"inputs":[{"internalType":"string","name":"documentHash","type":"string"},{"internalType":"bool","name":"isValid","type":"bool"},{"internalType":"string","name":"verificationDetails","type":"string"}],"name":"verifyDocument","outputs":[],"stateMutability":"nonpayable","type":"function"}],"evm":{"bytecode":{"linkReferences":{},"object":"608060405234801561001057600080fd5b5061135e806100206000396000f3fe608060405234801561001057600080fd5b50600436106100575760003560e01c806346ac04101461005c578063577a1b92146100785780637ccb6a64146100a857806390a4b162146100d8578063b3dd697b14610108575b600080fd5b61007660048036038101906100719190610a64565b61013c565b005b610092600480360381019061008d9190610b83565b61035a565b60405161009f9190610c42565b60405180910390f35b6100c260048036038101906100bd9190610c64565b610413565b6040516100cf9190610da1565b60405180910390f35b6100f260048036038101906100ed9190610dc3565b6105ea565b6040516100ff9190610eb2565b60405180910390f35b610122600480360381019061011d9190610c64565b610702565b604051610133959493929190610f01565b60405180910390f35b6000835111610180576040517f08c379a000000000000000000000000000000000000000000000000000000000815260040161017790610fae565b60405180910390fd5b6040518060a001604052808481526020013373ffffffffffffffffffffffffffffffffffffffff1681526020014281526020018315158152602001828152506000846040516101cf919061100a565b908152602001604051809103902060008201518160000190816101f2919061122d565b5060208201518160010160006101000a81548173ffffffffffffffffffffffffffffffffffffffff021916908373ffffffffffffffffffffffffffffffffffffffff1602179055506040820151816002015560608201518160030160006101000a81548160ff0219169083151502179055506080820151816004019081610279919061122d565b50905050600160003373ffffffffffffffffffffffffffffffffffffffff1673ffffffffffffffffffffffffffffffffffffffff168152602001908152602001600020839080600181540180825580915050600190039060005260206000200160009091909190915090816102ee919061122d565b503373ffffffffffffffffffffffffffffffffffffffff1683604051610314919061100a565b60405180910390207fc6c0381e12a4fb03527a52e993465a2c87fd5d7d3630818da2af5b66c6ac648d844260405161034d9291906112ff565b60405180910390a3505050565b6001602052816000526040600020818154811061037657600080fd5b9060005260206000200160009150915050805461039290611050565b80601f01602080910402602001604051908101604052809291908181526020018280546103be90611050565b801561040b5780601f106103e05761010080835404028352916020019161040b565b820191906000526020600020905b8154815290600101906020018083116103ee57829003601f168201915b505050505081565b61041b61088b565b60008260405161042b919061100a565b90815260200160405180910390206040518060a001604052908160008201805461045490611050565b80601f016020809104026020016040519081016040528092919081815260200182805461048090611050565b80156104cd5780601f106104a2576101008083540402835291602001916104cd565b820191906000526020600020905b8154815290600101906020018083116104b057829003601f168201915b505050505081526020016001820160009054906101000a900473ffffffffffffffffffffffffffffffffffffffff1673ffffffffffffffffffffffffffffffffffffffff1673ffffffffffffffffffffffffffffffffffffffff168152602001600282015481526020016003820160009054906101000a900460ff1615151515815260200160048201805461056190611050565b80601f016020809104026020016040519081016040528092919081815260200182805461058d90611050565b80156105da5780601f106105af576101008083540402835291602001916105da565b820191906000526020600020905b8154815290600101906020018083116105bd57829003601f168201915b5050505050815250509050919050565b6060600160008373ffffffffffffffffffffffffffffffffffffffff1673ffffffffffffffffffffffffffffffffffffffff168152602001908152602001600020805480602002602001604051908101604052809291908181526020016000905b828210156106f757838290600052602060002001805461066a90611050565b80601f016020809104026020016040519081016040528092919081815260200182805461069690611050565b80156106e35780601f106106b8576101008083540402835291602001916106e3565b820191906000526020600020905b8154815290600101906020018083116106c657829003601f168201915b50505050508152602001906001019061064b565b505050509050919050565b60008180516020810182018051848252602083016020850120818352809550505050505060009150905080600001805461073b90611050565b80601f016020809104026020016040519081016040528092919081815260200182805461076790611050565b80156107b45780601f10610789576101008083540402835291602001916107b4565b820191906000526020600020905b81548152906001019060200180831161079757829003601f168201915b5050505050908060010160009054906101000a900473ffffffffffffffffffffffffffffffffffffffff16908060020154908060030160009054906101000a900460ff169080600401805461080890611050565b80601f016020809104026020016040519081016040528092919081815260200182805461083490611050565b80156108815780601f1061085657610100808354040283529160200191610881565b820191906000526020600020905b81548152906001019060200180831161086457829003601f168201915b5050505050905085565b6040518060a0016040528060608152602001600073ffffffffffffffffffffffffffffffffffffffff16815260200160008152602001600015158152602001606081525090565b6000604051905090565b600080fd5b600080fd5b600080fd5b600080fd5b6000601f19601f8301169050919050565b7f4e487b7100000000000000000000000000000000000000000000000000000000600052604160045260246000fd5b610939826108f0565b810181811067ffffffffffffffff8211171561095857610957610901565b5b80604052505050565b600061096b6108d2565b90506109778282610930565b919050565b600067ffffffffffffffff82111561099757610996610901565b5b6109a0826108f0565b9050602081019050919050565b82818337600083830152505050565b60006109cf6109ca8461097c565b610961565b9050828152602081018484840111156109eb576109ea6108eb565b5b6109f68482856109ad565b509392505050565b600082601f830112610a1357610a126108e6565b5b8135610a238482602086016109bc565b91505092915050565b60008115159050919050565b610a4181610a2c565b8114610a4c57600080fd5b50565b600081359050610a5e81610a38565b92915050565b600080600060608486031215610a7d57610a7c6108dc565b5b600084013567ffffffffffffffff811115610a9b57610a9a6108e1565b5b610aa7868287016109fe565b9350506020610ab886828701610a4f565b925050604084013567ffffffffffffffff811115610ad957610ad86108e1565b5b610ae5868287016109fe565b9150509250925092565b600073ffffffffffffffffffffffffffffffffffffffff82169050919050565b6000610b1a82610aef565b9050919050565b610b2a81610b0f565b8114610b3557600080fd5b50565b600081359050610b4781610b21565b92915050565b6000819050919050565b610b6081610b4d565b8114610b6b57600080fd5b50565b600081359050610b7d81610b57565b92915050565b60008060408385031215610b9a57610b996108dc565b5b6000610ba885828601610b38565b9250506020610bb985828601610b6e565b9150509250929050565b600081519050919050565b600082825260208201905092915050565b60005b83811015610bfd578082015181840152602081019050610be2565b60008484015250505050565b6000610c1482610bc3565b610c1e8185610bce565b9350610c2e818560208601610bdf565b610c37816108f0565b840191505092915050565b60006020820190508181036000830152610c5c8184610c09565b905092915050565b600060208284031215610c7a57610c796108dc565b5b600082013567ffffffffffffffff811115610c9857610c976108e1565b5b610ca4848285016109fe565b91505092915050565b600082825260208201905092915050565b6000610cc982610bc3565b610cd38185610cad565b9350610ce3818560208601610bdf565b610cec816108f0565b840191505092915050565b610d0081610b0f565b82525050565b610d0f81610b4d565b82525050565b610d1e81610a2c565b82525050565b600060a0830160008301518482036000860152610d418282610cbe565b9150506020830151610d566020860182610cf7565b506040830151610d696040860182610d06565b506060830151610d7c6060860182610d15565b5060808301518482036080860152610d948282610cbe565b9150508091505092915050565b60006020820190508181036000830152610dbb8184610d24565b905092915050565b600060208284031215610dd957610dd86108dc565b5b6000610de784828501610b38565b91505092915050565b600081519050919050565b600082825260208201905092915050565b6000819050602082019050919050565b6000610e288383610cbe565b905092915050565b6000602082019050919050565b6000610e4882610df0565b610e528185610dfb565b935083602082028501610e6485610e0c565b8060005b85811015610ea05784840389528151610e818582610e1c565b9450610e8c83610e30565b925060208a01995050600181019050610e68565b50829750879550505050505092915050565b60006020820190508181036000830152610ecc8184610e3d565b905092915050565b610edd81610b0f565b82525050565b610eec81610b4d565b82525050565b610efb81610a2c565b82525050565b600060a0820190508181036000830152610f1b8188610c09565b9050610f2a6020830187610ed4565b610f376040830186610ee3565b610f446060830185610ef2565b8181036080830152610f568184610c09565b90509695505050505050565b7f446f63756d656e7420686173682063616e6e6f7420626520656d707479000000600082015250565b6000610f98601d83610bce565b9150610fa382610f62565b602082019050919050565b60006020820190508181036000830152610fc781610f8b565b9050919050565b600081905092915050565b6000610fe482610bc3565b610fee8185610fce565b9350610ffe818560208601610bdf565b80840191505092915050565b60006110168284610fd9565b915081905092915050565b7f4e487b7100000000000000000000000000000000000000000000000000000000600052602260045260246000fd5b6000600282049050600182168061106857607f821691505b60208210810361107b5761107a611021565b5b50919050565b60008190508160005260206000209050919050565b60006020601f8301049050919050565b600082821b905092915050565b6000600883026110e37fffffffffffffffffffffffffffffffffffffffffffffffffffffffffffffffff826110a6565b6110ed86836110a6565b95508019841693508086168417925050509392505050565b6000819050919050565b600061112a61112561112084610b4d565b611105565b610b4d565b9050919050565b6000819050919050565b6111448361110f565b61115861115082611131565b8484546110b3565b825550505050565b600090565b61116d611160565b61117881848461113b565b505050565b5b8181101561119c57611191600082611165565b60018101905061117e565b5050565b601f8211156111e1576111b281611081565b6111bb84611096565b810160208510156111ca578190505b6111de6111d685611096565b83018261117d565b50505b505050565b600082821c905092915050565b6000611204600019846008026111e6565b1980831691505092915050565b600061121d83836111f3565b9150826002028217905092915050565b61123682610bc3565b67ffffffffffffffff81111561124f5761124e610901565b5b6112598254611050565b6112648282856111a0565b600060209050601f8311600181146112975760008415611285578287015190505b61128f8582611211565b8655506112f7565b601f1984166112a586611081565b60005b828110156112cd578489015182556001820191506020850194506020810190506112a8565b868310156112ea57848901516112e6601f8916826111f3565b8355505b6001600288020188555050505b505050505050565b60006040820190506113146000830185610ef2565b6113216020830184610ee3565b939250505056fea2646970667358221220ee500672be8bd53f6dfcb70116bd6176d9d243d4b73a110440f30964fa88c0fc64736f6c63430008130033","opcodes":"PUSH1 0x80 PUSH1 0x40 MSTORE CALLVALUE DUP1 ISZERO PUSH2 0x10 JUMPI PUSH1 0x0 DUP1 REVERT JUMPDEST POP PUSH2 0x135E DUP1 PUSH2 0x20 PUSH1 0x0 CODECOPY PUSH1 0x0 RETURN INVALID PUSH1 0x80 PUSH1 0x40 MSTORE CALLVALUE DUP1 ISZERO PUSH2 0x10 JUMPI PUSH1 0x0 DUP1 REVERT JUMPDEST POP PUSH1 0x4 CALLDATASIZE LT PUSH2 0x57 JUMPI PUSH1 0x0 CALLDATALOAD PUSH1 0xE0 SHR DUP1 PUSH4 0x46AC0410 EQ PUSH2 0x5C JUMPI DUP1 PUSH4 0x577A1B92 EQ PUSH2 0x78 JUMPI DUP1 PUSH4 0x7CCB6A64 EQ PUSH2 0xA8 JUMPI DUP1 PUSH4 0x90A4B162 EQ PUSH2 0xD8 JUMPI DUP1 PUSH4 0xB3DD697B EQ PUSH2 0x108 JUMPI JUMPDEST PUSH1 0x0 DUP1 REVERT JUMPDEST PUSH2 0x76 PUSH1 0x4 DUP1 CALLDATASIZE SUB DUP2 ADD SWAP1 PUSH2 0x71 SWAP2 SWAP1 PUSH2 0xA64 JUMP JUMPDEST PUSH2 0x13C JUMP JUMPDEST STOP JUMPDEST PUSH2 0x92 PUSH1 0x4 DUP1 CALLDATASIZE SUB DUP2 ADD SWAP1 PUSH2 0x8D SWAP2 SWAP1 PUSH2 0xB83 JUMP JUMPDEST PUSH2 0x35A JUMP JUMPDEST PUSH1 0x40 MLOAD PUSH2 0x9F SWAP2 SWAP1 PUSH2 0xC42 JUMP JUMPDEST PUSH1 0x40 MLOAD DUP1 SWAP2 SUB SWAP1 RETURN JUMPDEST PUSH2 0xC2 PUSH1 0x4 DUP1 CALLDATASIZE SUB DUP2 ADD SWAP1 PUSH2 0xBD SWAP2 SWAP1 PUSH2 0xC64 JUMP JUMPDEST PUSH2 0x413 JUMP JUMPDEST PUSH1 0x40 MLOAD PUSH2 0xCF SWAP2 SWAP1 PUSH2 0xDA1 JUMP JUMPDEST PUSH1 0x40 MLOAD DUP1 SWAP2 SUB SWAP1 RETURN JUMPDEST PUSH2 0xF2 PUSH1 0x4 DUP1 CALLDATASIZE SUB DUP2 ADD SWAP1 PUSH2 0xED SWAP2 SWAP1 PUSH2 0xDC3 JUMP JUMPDEST PUSH2 0x5EA JUMP JUMPDEST PUSH1 0x40 MLOAD PUSH2 0xFF SWAP2 SWAP1 PUSH2 0xEB2 JUMP JUMPDEST PUSH1 0x40 MLOAD DUP1 SWAP2 SUB SWAP1 RETURN JUMPDEST PUSH2 0x122 PUSH1 0x4 DUP1 CALLDATASIZE SUB DUP2 ADD SWAP1 PUSH2 0x11D SWAP2 SWAP1 PUSH2 0xC64 JUMP JUMPDEST PUSH2 0x702 JUMP JUMPDEST PUSH1 0x40 MLOAD PUSH2 0x133 SWAP6 SWAP5 SWAP4 SWAP3 SWAP2 SWAP1 PUSH2 0xF01 JUMP JUMPDEST PUSH1 0x40 MLOAD DUP1 SWAP2 SUB SWAP1 RETURN JUMPDEST PUSH1 0x0 DUP4 MLOAD GT PUSH2 0x180 JUMPI PUSH1 0x40 MLOAD PUSH32 0x8C379A000000000000000000000000000000000000000000000000000000000 DUP2 MSTORE PUSH1 0x4 ADD PUSH2 0x177 SWAP1 PUSH2 0xFAE JUMP JUMPDEST PUSH1 0x40 MLOAD DUP1 SWAP2 SUB SWAP1 REVERT JUMPDEST PUSH1 0x40 MLOAD DUP1 PUSH1 0xA0 ADD PUSH1 0x40 MSTORE DUP1 DUP5 DUP2 MSTORE PUSH1 0x20 ADD CALLER PUSH20 0xFFFFFFFFFFFFFFFFFFFFFFFFFFFFFFFFFFFFFFFF AND DUP2 MSTORE PUSH1 0x20 ADD TIMESTAMP DUP2 MSTORE PUSH1 0x20 ADD DUP4 ISZERO ISZERO DUP2 MSTORE PUSH1 0x20 ADD DUP3 DUP2 MSTORE POP PUSH1 0x0 DUP5 PUSH1 0x40 MLOAD PUSH2 0x1CF SWAP2 SWAP1 PUSH2 0x100A JUMP JUMPDEST SWAP1 DUP2 MSTORE PUSH1 0x20 ADD PUSH1 0x40 MLOAD DUP1 SWAP2 SUB SWAP1 KECCAK256 PUSH1 0x0 DUP3 ADD MLOAD DUP2 PUSH1 0x0 ADD SWAP1 DUP2 PUSH2 0x1F2 SWAP2 SWAP1 PUSH2 0x122D JUMP JUMPDEST POP PUSH1 0x20 DUP3 ADD MLOAD DUP2 PUSH1 0x1 ADD PUSH1 0x0 PUSH2 0x100 EXP DUP2 SLOAD DUP2 PUSH20 0xFFFFFFFFFFFFFFFFFFFFFFFFFFFFFFFFFFFFFFFF MUL NOT AND SWAP1 DUP4 PUSH20 0xFFFFFFFFFFFFFFFFFFFFFFFFFFFFFFFFFFFFFFFF AND MUL OR SWAP1 SSTORE POP PUSH1 0x40 DUP3 ADD MLOAD DUP2 PUSH1 0x2 ADD SSTORE PUSH1 0x60 DUP3 ADD MLOAD DUP2 PUSH1 0x3 ADD PUSH1 0x0 PUSH2 0x100 EXP DUP2 SLOAD DUP2 PUSH1 0xFF MUL NOT AND SWAP1 DUP4 ISZERO ISZERO MUL OR SWAP1 SSTORE POP PUSH1 0x80 DUP3 ADD MLOAD DUP2 PUSH1 0x4 ADD SWAP1 DUP2 PUSH2 0x279 SWAP2 SWAP1 PUSH2 0x122D JUMP JUMPDEST POP SWAP1 POP POP PUSH1 0x1 PUSH1 0x0 CALLER PUSH20 0xFFFFFFFFFFFFFFFFFFFFFFFFFFFFFFFFFFFFFFFF AND PUSH20 0xFFFFFFFFFFFFFFFFFFFFFFFFFFFFFFFFFFFFFFFF AND DUP2 MSTORE PUSH1 0x20 ADD SWAP1 DUP2 MSTORE PUSH1 0x20 ADD PUSH1 0x0 KECCAK256 DUP4 SWAP1 DUP1 PUSH1 0x1 DUP2 SLOAD ADD DUP1 DUP3 SSTORE DUP1 SWAP2 POP POP PUSH1 0x1 SWAP1 SUB SWAP1 PUSH1 0x0 MSTORE PUSH1 0x20 PUSH1 0x0 KECCAK256 ADD PUSH1 0x0 SWAP1 SWAP2 SWAP1 SWAP2 SWAP1 SWAP2 POP SWAP1 DUP2 PUSH2 0x2EE SWAP2 SWAP1 PUSH2 0x122D JUMP JUMPDEST POP CALLER PUSH20 0xFFFFFFFFFFFFFFFFFFFFFFFFFFFFFFFFFFFFFFFF AND DUP4 PUSH1 0x40 MLOAD PUSH2 0x314 SWAP2 SWAP1 PUSH2 0x100A JUMP JUMPDEST PUSH1 0x40 MLOAD DUP1 SWAP2 SUB SWAP1 KECCAK256 PUSH32 0xC6C0381E12A4FB03527A52E993465A2C87FD5D7D3630818DA2AF5B66C6AC648D DUP5 TIMESTAMP PUSH1 0x40 MLOAD PUSH2 0x34D SWAP3 SWAP2 SWAP1 PUSH2 0x12FF JUMP JUMPDEST PUSH1 0x40 MLOAD DUP1 SWAP2 SUB SWAP1 LOG3 POP POP POP JUMP JUMPDEST PUSH1 0x1 PUSH1 0x20 MSTORE DUP2 PUSH1 0x0 MSTORE PUSH1 0x40 PUSH1 0x0 KECCAK256 DUP2 DUP2 SLOAD DUP2 LT PUSH2 0x376 JUMPI PUSH1 0x0 DUP1 REVERT JUMPDEST SWAP1 PUSH1 0x0 MSTORE PUSH1 0x20 PUSH1 0x0 KECCAK256 ADD PUSH1 0x0 SWAP2 POP SWAP2 POP POP DUP1 SLOAD PUSH2 0x392 SWAP1 PUSH2 0x1050 JUMP JUMPDEST DUP1 PUSH1 0x1F ADD PUSH1 0x20 DUP1 SWAP2 DIV MUL PUSH1 0x20 ADD PUSH1 0x40 MLOAD SWAP1 DUP2 ADD PUSH1 0x40 MSTORE DUP1 SWAP3 SWAP2 SWAP1 DUP2 DUP2 MSTORE PUSH1 0x20 ADD DUP3 DUP1 SLOAD PUSH2 0x3BE SWAP1 PUSH2 0x1050 JUMP JUMPDEST DUP1 ISZERO PUSH2 0x40B JUMPI DUP1 PUSH1 0x1F LT PUSH2 0x3E0 JUMPI PUSH2 0x100 DUP1 DUP4 SLOAD DIV MUL DUP4 MSTORE SWAP2 PUSH1 0x20 ADD SWAP2 PUSH2 0x40B JUMP JUMPDEST DUP3 ADD SWAP2 SWAP1 PUSH1 0x0 MSTORE PUSH1 0x20 PUSH1 0x0 KECCAK256 SWAP1 JUMPDEST DUP2 SLOAD DUP2 MSTORE SWAP1 PUSH1 0x1 ADD SWAP1 PUSH1 0x20 ADD DUP1 DUP4 GT PUSH2 0x3EE JUMPI DUP3 SWAP1 SUB PUSH1 0x1F AND DUP3 ADD SWAP2 JUMPDEST POP POP POP POP POP DUP2 JUMP JUMPDEST PUSH2 0x41B PUSH2 0x88B JUMP JUMPDEST PUSH1 0x0 DUP3 PUSH1 0x40 MLOAD PUSH2 0x42B SWAP2 SWAP1 PUSH2 0x100A JUMP JUMPDEST SWAP1 DUP2 MSTORE PUSH1 0x20 ADD PUSH1 0x40 MLOAD DUP1 SWAP2 SUB SWAP1 KECCAK256 PUSH1 0x40 MLOAD DUP1 PUSH1 0xA0 ADD PUSH1 0x40 MSTORE SWAP1 DUP2 PUSH1 0x0 DUP3 ADD DUP1 SLOAD PUSH2 0x454 SWAP1 PUSH2 0x1050 JUMP JUMPDEST DUP1 PUSH1 0x1F ADD PUSH1 0x20 DUP1 SWAP2 DIV MUL PUSH1 0x20 ADD PUSH1 0x40 MLOAD SWAP1 DUP2 ADD PUSH1 0x40 MSTORE DUP1 SWAP3 SWAP2 SWAP1 DUP2 DUP2 MSTORE PUSH1 0x20 ADD DUP3 DUP1 SLOAD PUSH2 0x480 SWAP1 PUSH2 0x1050 JUMP JUMPDEST DUP1 ISZERO PUSH2 0x4CD JUMPI DUP1 PUSH1 0x1F LT PUSH2 0x4A2 JUMPI PUSH2 0x100 DUP1 DUP4 SLOAD DIV MUL DUP4 MSTORE SWAP2 PUSH1 0x20 ADD SWAP2 PUSH2 0x4CD JUMP JUMPDEST DUP3 ADD SWAP2 SWAP1 PUSH1 0x0 MSTORE PUSH1 0x20 PUSH1 0x0 KECCAK256 SWAP1 JUMPDEST DUP2 SLOAD DUP2 MSTORE SWAP1 PUSH1 0x1 ADD SWAP1 PUSH1 0x20 ADD DUP1 DUP4 GT PUSH2 0x4B0 JUMPI DUP3 SWAP1 SUB PUSH1 0x1F AND DUP3 ADD SWAP2 JUMPDEST POP POP POP POP POP DUP2 MSTORE PUSH1 0x20 ADD PUSH1 0x1 DUP3 ADD PUSH1 0x0 SWAP1 SLOAD SWAP1 PUSH2 0x100 EXP SWAP1 DIV PUSH20 0xFFFFFFFFFFFFFFFFFFFFFFFFFFFFFFFFFFFFFFFF AND PUSH20 0xFFFFFFFFFFFFFFFFFFFFFFFFFFFFFFFFFFFFFFFF AND PUSH20 0xFFFFFFFFFFFFFFFFFFFFFFFFFFFFFFFFFFFFFFFF AND DUP2 MSTORE PUSH1 0x20 ADD PUSH1 0x2 DUP3 ADD SLOAD DUP2 MSTORE PUSH1 0x20 ADD PUSH1 0x3 DUP3 ADD PUSH1 0x0 SWAP1 SLOAD SWAP1 PUSH2 0x100 EXP SWAP1 DIV PUSH1 0xFF AND ISZERO ISZERO ISZERO ISZERO DUP2 MSTORE PUSH1 0x20 ADD PUSH1 0x4 DUP3 ADD DUP1 SLOAD PUSH2 0x561 SWAP1 PUSH2 0x1050 JUMP JUMPDEST DUP1 PUSH1 0x1F ADD PUSH1 0x20 DUP1 SWAP2 DIV MUL PUSH1 0x20 ADD PUSH1 0x40 MLOAD SWAP1 DUP2 ADD PUSH1 0x40 MSTORE DUP1 SWAP3 SWAP2 SWAP1 DUP2 DUP2 MSTORE PUSH1 0x20 ADD DUP3 DUP1 SLOAD PUSH2 0x58D SWAP1 PUSH2 0x1050 JUMP JUMPDEST DUP1 ISZERO PUSH2 0x5DA JUMPI DUP1 PUSH1 0x1F LT PUSH2 0x5AF JUMPI PUSH2 0x100 DUP1 DUP4 SLOAD DIV MUL DUP4 MSTORE SWAP2 PUSH1 0x20 ADD SWAP2 PUSH2 0x5DA JUMP JUMPDEST DUP3 ADD SWAP2 SWAP1 PUSH1 0x0 MSTORE PUSH1 0x20 PUSH1 0x0 KECCAK256 SWAP1 JUMPDEST DUP2 SLOAD DUP2 MSTORE SWAP1 PUSH1 0x1 ADD SWAP1 PUSH1 0x20 ADD DUP1 DUP4 GT PUSH2 0x5BD JUMPI DUP3 SWAP1 SUB PUSH1 0x1F AND DUP3 ADD SWAP2 JUMPDEST POP POP POP POP POP DUP2 MSTORE POP POP SWAP1 POP SWAP2 SWAP1 POP JUMP JUMPDEST PUSH1 0x60 PUSH1 0x1 PUSH1 0x0 DUP4 PUSH20 0xFFFFFFFFFFFFFFFFFFFFFFFFFFFFFFFFFFFFFFFF AND PUSH20 0xFFFFFFFFFFFFFFFFFFFFFFFFFFFFFFFFFFFFFFFF AND DUP2 MSTORE PUSH1 0x20 ADD SWAP1 DUP2 MSTORE PUSH1 0x20 ADD PUSH1 0x0 KECCAK256 DUP1 SLOAD DUP1 PUSH1 0x20 MUL PUSH1 0x20 ADD PUSH1 0x40 MLOAD SWAP1 DUP2 ADD PUSH1 0x40 MSTORE DUP1 SWAP3 SWAP2 SWAP1 DUP2 DUP2 MSTORE PUSH1 0x20 ADD PUSH1 0x0 SWAP1 JUMPDEST DUP3 DUP3 LT ISZERO PUSH2 0x6F7 JUMPI DUP4 DUP3 SWAP1 PUSH1 0x0 MSTORE PUSH1 0x20 PUSH1 0x0 KECCAK256 ADD DUP1 SLOAD PUSH2 0x66A SWAP1 PUSH2 0x1050 JUMP JUMPDEST DUP1 PUSH1 0x1F ADD PUSH1 0x20 DUP1 SWAP2 DIV MUL PUSH1 0x20 ADD PUSH1 0x40 MLOAD SWAP1 DUP2 ADD PUSH1 0x40 MSTORE DUP1 SWAP3 SWAP2 SWAP1 DUP2 DUP2 MSTORE PUSH1 0x20 ADD DUP3 DUP1 SLOAD PUSH2 0x696 SWAP1 PUSH2 0x1050 JUMP JUMPDEST DUP1 ISZERO PUSH2 0x6E3 JUMPI DUP1 PUSH1 0x1F LT PUSH2 0x6B8 JUMPI PUSH2 0x100 DUP1 DUP4 SLOAD DIV MUL DUP4 MSTORE SWAP2 PUSH1 0x20 ADD SWAP2 PUSH2 0x6E3 JUMP JUMPDEST DUP3 ADD SWAP2 SWAP1 PUSH1 0x0 MSTORE PUSH1 0x20 PUSH1 0x0 KECCAK256 SWAP1 JUMPDEST DUP2 SLOAD DUP2 MSTORE SWAP1 PUSH1 0x1 ADD SWAP1 PUSH1 0x20 ADD DUP1 DUP4 GT PUSH2 0x6C6 JUMPI DUP3 SWAP1 SUB PUSH1 0x1F AND DUP3 ADD SWAP2 JUMPDEST POP POP POP POP POP DUP2 MSTORE PUSH1 0x20 ADD SWAP1 PUSH1 0x1 ADD SWAP1 PUSH2 0x64B JUMP JUMPDEST POP POP POP POP SWAP1 POP SWAP2 SWAP1 POP JUMP JUMPDEST PUSH1 0x0 DUP2 DUP1 MLOAD PUSH1 0x20 DUP2 ADD DUP3 ADD DUP1 MLOAD DUP5 DUP3 MSTORE PUSH1 0x20 DUP4 ADD PUSH1 0x20 DUP6 ADD KECCAK256 DUP2 DUP4 MSTORE DUP1 SWAP6 POP POP POP POP POP POP PUSH1 0x0 SWAP2 POP SWAP1 POP DUP1 PUSH1 0x0 ADD DUP1 SLOAD PUSH2 0x73B SWAP1 PUSH2 0x1050 JUMP JUMPDEST DUP1 PUSH1 0x1F ADD PUSH1 0x20 DUP1 SWAP2 DIV MUL PUSH1 0x20 ADD PUSH1 0x40 MLOAD SWAP1 DUP2 ADD PUSH1 0x40 MSTORE DUP1 SWAP3 SWAP2 SWAP1 DUP2 DUP2 MSTORE PUSH1 0x20 ADD DUP3 DUP1 SLOAD PUSH2 0x767 SWAP1 PUSH2 0x1050 JUMP JUMPDEST DUP1 ISZERO PUSH2 0x7B4 JUMPI DUP1 PUSH1 0x1F LT PUSH2 0x789 JUMPI PUSH2 0x100 DUP1 DUP4 SLOAD DIV MUL DUP4 MSTORE SWAP2 PUSH1 0x20 ADD SWAP2 PUSH2 0x7B4 JUMP JUMPDEST DUP3 ADD SWAP2 SWAP1 PUSH1 0x0 MSTORE PUSH1 0x20 PUSH1 0x0 KECCAK256 SWAP1 JUMPDEST DUP2 SLOAD DUP2 MSTORE SWAP1 PUSH1 0x1 ADD SWAP1 PUSH1 0x20 ADD DUP1 DUP4 GT PUSH2 0x797 JUMPI DUP3 SWAP1 SUB PUSH1 0x1F AND DUP3 ADD SWAP2 JUMPDEST POP POP POP POP POP SWAP1 DUP1 PUSH1 0x1 ADD PUSH1 0x0 SWAP1 SLOAD SWAP1 PUSH2 0x100 EXP SWAP1 DIV PUSH20 0xFFFFFFFFFFFFFFFFFFFFFFFFFFFFFFFFFFFFFFFF AND SWAP1 DUP1 PUSH1 0x2 ADD SLOAD SWAP1 DUP1 PUSH1 0x3 ADD PUSH1 0x0 SWAP1 SLOAD SWAP1 PUSH2 0x100 EXP SWAP1 DIV PUSH1 0xFF AND SWAP1 DUP1 PUSH1 0x4 ADD DUP1 SLOAD PUSH2 0x808 SWAP1 PUSH2 0x1050 JUMP JUMPDEST DUP1 PUSH1 0x1F ADD PUSH1 0x20 DUP1 SWAP2 DIV MUL PUSH1 0x20 ADD PUSH1 0x40 MLOAD SWAP1 DUP2 ADD PUSH1 0x40 MSTORE DUP1 SWAP3 SWAP2 SWAP1 DUP2 DUP2 MSTORE PUSH1 0x20 ADD DUP3 DUP1 SLOAD PUSH2 0x834 SWAP1 PUSH2 0x1050 JUMP JUMPDEST DUP1 ISZERO PUSH2 0x881 JUMPI DUP1 PUSH1 0x1F LT PUSH2 0x856 JUMPI PUSH2 0x100 DUP1 DUP4 SLOAD DIV MUL DUP4 MSTORE SWAP2 PUSH1 0x20 ADD SWAP2 PUSH2 0x881 JUMP JUMPDEST DUP3 ADD SWAP2 SWAP1 PUSH1 0x0 MSTORE PUSH1 0x20 PUSH1 0x0 KECCAK256 SWAP1 JUMPDEST DUP2 SLOAD DUP2 MSTORE SWAP1 PUSH1 0x1 ADD SWAP1 PUSH1 0x20 ADD DUP1 DUP4 GT PUSH2 0x864 JUMPI DUP3 SWAP1 SUB PUSH1 0x1F AND DUP3 ADD SWAP2 JUMPDEST POP POP POP POP POP SWAP1 POP DUP6 JUMP JUMPDEST PUSH1 0x40 MLOAD DUP1 PUSH1 0xA0 ADD PUSH1 0x40 MSTORE DUP1 PUSH1 0x60 DUP2 MSTORE PUSH1 0x20 ADD PUSH1 0x0 PUSH20 0xFFFFFFFFFFFFFFFFFFFFFFFFFFFFFFFFFFFFFFFF AND DUP2 MSTORE PUSH1 0x20 ADD PUSH1 0x0 DUP2 MSTORE PUSH1 0x20 ADD PUSH1 0x0 ISZERO ISZERO DUP2 MSTORE PUSH1 0x20 ADD PUSH1 0x60 DUP2 MSTORE POP SWAP1 JUMP JUMPDEST PUSH1 0x0 PUSH1 0x40 MLOAD SWAP1 POP SWAP1 JUMP JUMPDEST PUSH1 0x0 DUP1 REVERT JUMPDEST PUSH1 0x0 DUP1 REVERT JUMPDEST PUSH1 0x0 DUP1 REVERT JUMPDEST PUSH1 0x0 DUP1 REVERT JUMPDEST PUSH1 0x0 PUSH1 0x1F NOT PUSH1 0x1F DUP4 ADD AND SWAP1 POP SWAP2 SWAP1 POP JUMP JUMPDEST PUSH32 0x4E487B7100000000000000000000000000000000000000000000000000000000 PUSH1 0x0 MSTORE PUSH1 0x41 PUSH1 0x4 MSTORE PUSH1 0x24 PUSH1 0x0 REVERT JUMPDEST PUSH2 0x939 DUP3 PUSH2 0x8F0 JUMP JUMPDEST DUP2 ADD DUP2 DUP2 LT PUSH8 0xFFFFFFFFFFFFFFFF DUP3 GT OR ISZERO PUSH2 0x958 JUMPI PUSH2 0x957 PUSH2 0x901 JUMP JUMPDEST JUMPDEST DUP1 PUSH1 0x40 MSTORE POP POP POP JUMP JUMPDEST PUSH1 0x0 PUSH2 0x96B PUSH2 0x8D2 JUMP JUMPDEST SWAP1 POP PUSH2 0x977 DUP3 DUP3 PUSH2 0x930 JUMP JUMPDEST SWAP2 SWAP1 POP JUMP JUMPDEST PUSH1 0x0 PUSH8 0xFFFFFFFFFFFFFFFF DUP3 GT ISZERO PUSH2 0x997 JUMPI PUSH2 0x996 PUSH2 0x901 JUMP JUMPDEST JUMPDEST PUSH2 0x9A0 DUP3 PUSH2 0x8F0 JUMP JUMPDEST SWAP1 POP PUSH1 0x20 DUP2 ADD SWAP1 POP SWAP2 SWAP1 POP JUMP JUMPDEST DUP3 DUP2 DUP4 CALLDATACOPY PUSH1 0x0 DUP4 DUP4 ADD MSTORE POP POP POP JUMP JUMPDEST PUSH1 0x0 PUSH2 0x9CF PUSH2 0x9CA DUP5 PUSH2 0x97C JUMP JUMPDEST PUSH2 0x961 JUMP JUMPDEST SWAP1 POP DUP3 DUP2 MSTORE PUSH1 0x20 DUP2 ADD DUP5 DUP5 DUP5 ADD GT ISZERO PUSH2 0x9EB JUMPI PUSH2 0x9EA PUSH2 0x8EB JUMP JUMPDEST JUMPDEST PUSH2 0x9F6 DUP5 DUP3 DUP6 PUSH2 0x9AD JUMP JUMPDEST POP SWAP4 SWAP3 POP POP POP JUMP JUMPDEST PUSH1 0x0 DUP3 PUSH1 0x1F DUP4 ADD SLT PUSH2 0xA13 JUMPI PUSH2 0xA12 PUSH2 0x8E6 JUMP JUMPDEST JUMPDEST DUP2 CALLDATALOAD PUSH2 0xA23 DUP5 DUP3 PUSH1 0x20 DUP7 ADD PUSH2 0x9BC JUMP JUMPDEST SWAP2 POP POP SWAP3 SWAP2 POP POP JUMP JUMPDEST PUSH1 0x0 DUP2 ISZERO ISZERO SWAP1 POP SWAP2 SWAP1 POP JUMP JUMPDEST PUSH2 0xA41 DUP2 PUSH2 0xA2C JUMP JUMPDEST DUP2 EQ PUSH2 0xA4C JUMPI PUSH1 0x0 DUP1 REVERT JUMPDEST POP JUMP JUMPDEST PUSH1 0x0 DUP2 CALLDATALOAD SWAP1 POP PUSH2 0xA5E DUP2 PUSH2 0xA38 JUMP JUMPDEST SWAP3 SWAP2 POP POP JUMP JUMPDEST PUSH1 0x0 DUP1 PUSH1 0x0 PUSH1 0x60 DUP5 DUP7 SUB SLT ISZERO PUSH2 0xA7D JUMPI PUSH2 0xA7C PUSH2 0x8DC JUMP JUMPDEST JUMPDEST PUSH1 0x0 DUP5 ADD CALLDATALOAD PUSH8 0xFFFFFFFFFFFFFFFF DUP2 GT ISZERO PUSH2 0xA9B JUMPI PUSH2 0xA9A PUSH2 0x8E1 JUMP JUMPDEST JUMPDEST PUSH2 0xAA7 DUP7 DUP3 DUP8 ADD PUSH2 0x9FE JUMP JUMPDEST SWAP4 POP POP PUSH1 0x20 PUSH2 0xAB8 DUP7 DUP3 DUP8 ADD PUSH2 0xA4F JUMP JUMPDEST SWAP3 POP POP PUSH1 0x40 DUP5 ADD CALLDATALOAD PUSH8 0xFFFFFFFFFFFFFFFF DUP2 GT ISZERO PUSH2 0xAD9 JUMPI PUSH2 0xAD8 PUSH2 0x8E1 JUMP JUMPDEST JUMPDEST PUSH2 0xAE5 DUP7 DUP3 DUP8 ADD PUSH2 0x9FE JUMP JUMPDEST SWAP2 POP POP SWAP3 POP SWAP3 POP SWAP3 JUMP JUMPDEST PUSH1 0x0 PUSH20 0xFFFFFFFFFFFFFFFFFFFFFFFFFFFFFFFFFFFFFFFF DUP3 AND SWAP1 POP SWAP2 SWAP1 POP JUMP JUMPDEST PUSH1 0x0 PUSH2 0xB1A DUP3 PUSH2 0xAEF JUMP JUMPDEST SWAP1 POP SWAP2 SWAP1 POP JUMP JUMPDEST PUSH2 0xB2A DUP2 PUSH2 0xB0F JUMP JUMPDEST DUP2 EQ PUSH2 0xB35 JUMPI PUSH1 0x0 DUP1 REVERT JUMPDEST POP JUMP JUMPDEST PUSH1 0x0 DUP2 CALLDATALOAD SWAP1 POP PUSH2 0xB47 DUP2 PUSH2 0xB21 JUMP JUMPDEST SWAP3 SWAP2 POP POP JUMP JUMPDEST PUSH1 0x0 DUP2 SWAP1 POP SWAP2 SWAP1 POP JUMP JUMPDEST PUSH2 0xB60 DUP2 PUSH2 0xB4D JUMP JUMPDEST DUP2 EQ PUSH2 0xB6B JUMPI PUSH1 0x0 DUP1 REVERT JUMPDEST POP JUMP JUMPDEST PUSH1 0x0 DUP2 CALLDATALOAD SWAP1 POP PUSH2 0xB7D DUP2 PUSH2 0xB57 JUMP JUMPDEST SWAP3 SWAP2 POP POP JUMP JUMPDEST PUSH1 0x0 DUP1 PUSH1 0x40 DUP4 DUP6 SUB SLT ISZERO PUSH2 0xB9A JUMPI PUSH2 0xB99 PUSH2 0x8DC JUMP JUMPDEST JUMPDEST PUSH1 0x0 PUSH2 0xBA8 DUP6 DUP3 DUP7 ADD PUSH2 0xB38 JUMP JUMPDEST SWAP3 POP POP PUSH1 0x20 PUSH2 0xBB9 DUP6 DUP3 DUP7 ADD PUSH2 0xB6E JUMP JUMPDEST SWAP2 POP POP SWAP3 POP SWAP3 SWAP1 POP JUMP JUMPDEST PUSH1 0x0 DUP2 MLOAD SWAP1 POP SWAP2 SWAP1 POP JUMP JUMPDEST PUSH1 0x0 DUP3 DUP3 MSTORE PUSH1 0x20 DUP3 ADD SWAP1 POP SWAP3 SWAP2 POP POP JUMP JUMPDEST PUSH1 0x0 JUMPDEST DUP4 DUP2 LT ISZERO PUSH2 0xBFD JUMPI DUP1 DUP3 ADD MLOAD DUP2 DUP5 ADD MSTORE PUSH1 0x20 DUP2 ADD SWAP1 POP PUSH2 0xBE2 JUMP JUMPDEST PUSH1 0x0 DUP5 DUP5 ADD MSTORE POP POP POP POP JUMP JUMPDEST PUSH1 0x0 PUSH2 0xC14 DUP3 PUSH2 0xBC3 JUMP JUMPDEST PUSH2 0xC1E DUP2 DUP6 PUSH2 0xBCE JUMP JUMPDEST SWAP4 POP PUSH2 0xC2E DUP2 DUP6 PUSH1 0x20 DUP7 ADD PUSH2 0xBDF JUMP JUMPDEST PUSH2 0xC37 DUP2 PUSH2 0x8F0 JUMP JUMPDEST DUP5 ADD SWAP2 POP POP SWAP3 SWAP2 POP POP JUMP JUMPDEST PUSH1 0x0 PUSH1 0x20 DUP3 ADD SWAP1 POP DUP2 DUP2 SUB PUSH1 0x0 DUP4 ADD MSTORE PUSH2 0xC5C DUP2 DUP5 PUSH2 0xC09 JUMP JUMPDEST SWAP1 POP SWAP3 SWAP2 POP POP JUMP JUMPDEST PUSH1 0x0 PUSH1 0x20 DUP3 DUP5 SUB SLT ISZERO PUSH2 0xC7A JUMPI PUSH2 0xC79 PUSH2 0x8DC JUMP JUMPDEST JUMPDEST PUSH1 0x0 DUP3 ADD CALLDATALOAD PUSH8 0xFFFFFFFFFFFFFFFF DUP2 GT ISZERO PUSH2 0xC98 JUMPI PUSH2 0xC97 PUSH2 0x8E1 JUMP JUMPDEST JUMPDEST PUSH2 0xCA4 DUP5 DUP3 DUP6 ADD PUSH2 0x9FE JUMP JUMPDEST SWAP2 POP POP SWAP3 SWAP2 POP POP JUMP JUMPDEST PUSH1 0x0 DUP3 DUP3 MSTORE PUSH1 0x20 DUP3 ADD SWAP1 POP SWAP3 SWAP2 POP POP JUMP JUMPDEST PUSH1 0x0 PUSH2 0xCC9 DUP3 PUSH2 0xBC3 JUMP JUMPDEST PUSH2 0xCD3 DUP2 DUP6 PUSH2 0xCAD JUMP JUMPDEST SWAP4 POP PUSH2 0xCE3 DUP2 DUP6 PUSH1 0x20 DUP7 ADD PUSH2 0xBDF JUMP JUMPDEST PUSH2 0xCEC DUP2 PUSH2 0x8F0 JUMP JUMPDEST DUP5 ADD SWAP2 POP POP SWAP3 SWAP2 POP POP JUMP JUMPDEST PUSH2 0xD00 DUP2 PUSH2 0xB0F JUMP JUMPDEST DUP3 MSTORE POP POP JUMP JUMPDEST PUSH2 0xD0F DUP2 PUSH2 0xB4D JUMP JUMPDEST DUP3 MSTORE POP POP JUMP JUMPDEST PUSH2 0xD1E DUP2 PUSH2 0xA2C JUMP JUMPDEST DUP3 MSTORE POP POP JUMP JUMPDEST PUSH1 0x0 PUSH1 0xA0 DUP4 ADD PUSH1 0x0 DUP4 ADD MLOAD DUP5 DUP3 SUB PUSH1 0x0 DUP7 ADD MSTORE PUSH2 0xD41 DUP3 DUP3 PUSH2 0xCBE JUMP JUMPDEST SWAP2 POP POP PUSH1 0x20 DUP4 ADD MLOAD PUSH2 0xD56 PUSH1 0x20 DUP7 ADD DUP3 PUSH2 0xCF7 JUMP JUMPDEST POP PUSH1 0x40 DUP4 ADD MLOAD PUSH2 0xD69 PUSH1 0x40 DUP7 ADD DUP3 PUSH2 0xD06 JUMP JUMPDEST POP PUSH1 0x60 DUP4 ADD MLOAD PUSH2 0xD7C PUSH1 0x60 DUP7 ADD DUP3 PUSH2 0xD15 JUMP JUMPDEST POP PUSH1 0x80 DUP4 ADD MLOAD DUP5 DUP3 SUB PUSH1 0x80 DUP7 ADD MSTORE PUSH2 0xD94 DUP3 DUP3 PUSH2 0xCBE JUMP JUMPDEST SWAP2 POP POP DUP1 SWAP2 POP POP SWAP3 SWAP2 POP POP JUMP JUMPDEST PUSH1 0x0 PUSH1 0x20 DUP3 ADD SWAP1 POP DUP2 DUP2 SUB PUSH1 0x0 DUP4 ADD MSTORE PUSH2 0xDBB DUP2 DUP5 PUSH2 0xD24 JUMP JUMPDEST SWAP1 POP SWAP3 SWAP2 POP POP JUMP JUMPDEST PUSH1 0x0 PUSH1 0x20 DUP3 DUP5 SUB SLT ISZERO PUSH2 0xDD9 JUMPI PUSH2 0xDD8 PUSH2 0x8DC JUMP JUMPDEST JUMPDEST PUSH1 0x0 PUSH2 0xDE7 DUP5 DUP3 DUP6 ADD PUSH2 0xB38 JUMP JUMPDEST SWAP2 POP POP SWAP3 SWAP2 POP POP JUMP JUMPDEST PUSH1 0x0 DUP2 MLOAD SWAP1 POP SWAP2 SWAP1 POP JUMP JUMPDEST PUSH1 0x0 DUP3 DUP3 MSTORE PUSH1 0x20 DUP3 ADD SWAP1 POP SWAP3 SWAP2 POP POP JUMP JUMPDEST PUSH1 0x0 DUP2 SWAP1 POP PUSH1 0x20 DUP3 ADD SWAP1 POP SWAP2 SWAP1 POP JUMP JUMPDEST PUSH1 0x0 PUSH2 0xE28 DUP4 DUP4 PUSH2 0xCBE JUMP JUMPDEST SWAP1 POP SWAP3 SWAP2 POP POP JUMP JUMPDEST PUSH1 0x0 PUSH1 0x20 DUP3 ADD SWAP1 POP SWAP2 SWAP1 POP JUMP JUMPDEST PUSH1 0x0 PUSH2 0xE48 DUP3 PUSH2 0xDF0 JUMP JUMPDEST PUSH2 0xE52 DUP2 DUP6 PUSH2 0xDFB JUMP JUMPDEST SWAP4 POP DUP4 PUSH1 0x20 DUP3 MUL DUP6 ADD PUSH2 0xE64 DUP6 PUSH2 0xE0C JUMP JUMPDEST DUP1 PUSH1 0x0 JUMPDEST DUP6 DUP2 LT ISZERO PUSH2 0xEA0 JUMPI DUP5 DUP5 SUB DUP10 MSTORE DUP2 MLOAD PUSH2 0xE81 DUP6 DUP3 PUSH2 0xE1C JUMP JUMPDEST SWAP5 POP PUSH2 0xE8C DUP4 PUSH2 0xE30 JUMP JUMPDEST SWAP3 POP PUSH1 0x20 DUP11 ADD SWAP10 POP POP PUSH1 0x1 DUP2 ADD SWAP1 POP PUSH2 0xE68 JUMP JUMPDEST POP DUP3 SWAP8 POP DUP8 SWAP6 POP POP POP POP POP POP SWAP3 SWAP2 POP POP JUMP JUMPDEST PUSH1 0x0 PUSH1 0x20 DUP3 ADD SWAP1 POP DUP2 DUP2 SUB PUSH1 0x0 DUP4 ADD MSTORE PUSH2 0xECC DUP2 DUP5 PUSH2 0xE3D JUMP JUMPDEST SWAP1 POP SWAP3 SWAP2 POP POP JUMP JUMPDEST PUSH2 0xEDD DUP2 PUSH2 0xB0F JUMP JUMPDEST DUP3 MSTORE POP POP JUMP JUMPDEST PUSH2 0xEEC DUP2 PUSH2 0xB4D JUMP JUMPDEST DUP3 MSTORE POP POP JUMP JUMPDEST PUSH2 0xEFB DUP2 PUSH2 0xA2C JUMP JUMPDEST DUP3 MSTORE POP POP JUMP JUMPDEST PUSH1 0x0 PUSH1 0xA0 DUP3 ADD SWAP1 POP DUP2 DUP2 SUB PUSH1 0x0 DUP4 ADD MSTORE PUSH2 0xF1B DUP2 DUP9 PUSH2 0xC09 JUMP JUMPDEST SWAP1 POP PUSH2 0xF2A PUSH1 0x20 DUP4 ADD DUP8 PUSH2 0xED4 JUMP JUMPDEST PUSH2 0xF37 PUSH1 0x40 DUP4 ADD DUP7 PUSH2 0xEE3 JUMP JUMPDEST PUSH2 0xF44 PUSH1 0x60 DUP4 ADD DUP6 PUSH2 0xEF2 JUMP JUMPDEST DUP2 DUP2 SUB PUSH1 0x80 DUP4 ADD MSTORE PUSH2 0xF56 DUP2 DUP5 PUSH2 0xC09 JUMP JUMPDEST SWAP1 POP SWAP7 SWAP6 POP POP POP POP POP POP JUMP JUMPDEST PUSH32 0x446F63756D656E7420686173682063616E6E6F7420626520656D707479000000 PUSH1 0x0 DUP3 ADD MSTORE POP JUMP JUMPDEST PUSH1 0x0 PUSH2 0xF98 PUSH1 0x1D DUP4 PUSH2 0xBCE JUMP JUMPDEST SWAP2 POP PUSH2 0xFA3 DUP3 PUSH2 0xF62 JUMP JUMPDEST PUSH1 0x20 DUP3 ADD SWAP1 POP SWAP2 SWAP1 POP JUMP JUMPDEST PUSH1 0x0 PUSH1 0x20 DUP3 ADD SWAP1 POP DUP2 DUP2 SUB PUSH1 0x0 DUP4 ADD MSTORE PUSH2 0xFC7 DUP2 PUSH2 0xF8B JUMP JUMPDEST SWAP1 POP SWAP2 SWAP1 POP JUMP JUMPDEST PUSH1 0x0 DUP2 SWAP1 POP SWAP3 SWAP2 POP POP JUMP JUMPDEST PUSH1 0x0 PUSH2 0xFE4 DUP3 PUSH2 0xBC3 JUMP JUMPDEST PUSH2 0xFEE DUP2 DUP6 PUSH2 0xFCE JUMP JUMPDEST SWAP4 POP PUSH2 0xFFE DUP2 DUP6 PUSH1 0x20 DUP7 ADD PUSH2 0xBDF JUMP JUMPDEST DUP1 DUP5 ADD SWAP2 POP POP SWAP3 SWAP2 POP POP JUMP JUMPDEST PUSH1 0x0 PUSH2 0x1016 DUP3 DUP5 PUSH2 0xFD9 JUMP JUMPDEST SWAP2 POP DUP2 SWAP1 POP SWAP3 SWAP2 POP POP JUMP JUMPDEST PUSH32 0x4E487B7100000000000000000000000000000000000000000000000000000000 PUSH1 0x0 MSTORE PUSH1 0x22 PUSH1 0x4 MSTORE PUSH1 0x24 PUSH1 0x0 REVERT JUMPDEST PUSH1 0x0 PUSH1 0x2 DUP3 DIV SWAP1 POP PUSH1 0x1 DUP3 AND DUP1 PUSH2 0x1068 JUMPI PUSH1 0x7F DUP3 AND SWAP2 POP JUMPDEST PUSH1 0x20 DUP3 LT DUP2 SUB PUSH2 0x107B JUMPI PUSH2 0x107A PUSH2 0x1021 JUMP JUMPDEST JUMPDEST POP SWAP2 SWAP1 POP JUMP JUMPDEST PUSH1 0x0 DUP2 SWAP1 POP DUP2 PUSH1 0x0 MSTORE PUSH1 0x20 PUSH1 0x0 KECCAK256 SWAP1 POP SWAP2 SWAP1 POP JUMP JUMPDEST PUSH1 0x0 PUSH1 0x20 PUSH1 0x1F DUP4 ADD DIV SWAP1 POP SWAP2 SWAP1 POP JUMP JUMPDEST PUSH1 0x0 DUP3 DUP3 SHL SWAP1 POP SWAP3 SWAP2 POP POP JUMP JUMPDEST PUSH1 0x0 PUSH1 0x8 DUP4 MUL PUSH2 0x10E3 PUSH32 0xFFFFFFFFFFFFFFFFFFFFFFFFFFFFFFFFFFFFFFFFFFFFFFFFFFFFFFFFFFFFFFFF DUP3 PUSH2 0x10A6 JUMP JUMPDEST PUSH2 0x10ED DUP7 DUP4 PUSH2 0x10A6 JUMP JUMPDEST SWAP6 POP DUP1 NOT DUP5 AND SWAP4 POP DUP1 DUP7 AND DUP5 OR SWAP3 POP POP POP SWAP4 SWAP3 POP POP POP JUMP JUMPDEST PUSH1 0x0 DUP2 SWAP1 POP SWAP2 SWAP1 POP JUMP JUMPDEST PUSH1 0x0 PUSH2 0x112A PUSH2 0x1125 PUSH2 0x1120 DUP5 PUSH2 0xB4D JUMP JUMPDEST PUSH2 0x1105 JUMP JUMPDEST PUSH2 0xB4D JUMP JUMPDEST SWAP1 POP SWAP2 SWAP1 POP JUMP JUMPDEST PUSH1 0x0 DUP2 SWAP1 POP SWAP2 SWAP1 POP JUMP JUMPDEST PUSH2 0x1144 DUP4 PUSH2 0x110F JUMP JUMPDEST PUSH2 0x1158 PUSH2 0x1150 DUP3 PUSH2 0x1131 JUMP JUMPDEST DUP5 DUP5 SLOAD PUSH2 0x10B3 JUMP JUMPDEST DUP3 SSTORE POP POP POP POP JUMP JUMPDEST PUSH1 0x0 SWAP1 JUMP JUMPDEST PUSH2 0x116D PUSH2 0x1160 JUMP JUMPDEST PUSH2 0x1178 DUP2 DUP5 DUP5 PUSH2 0x113B JUMP JUMPDEST POP POP POP JUMP JUMPDEST JUMPDEST DUP2 DUP2 LT ISZERO PUSH2 0x119C JUMPI PUSH2 0x1191 PUSH1 0x0 DUP3 PUSH2 0x1165 JUMP JUMPDEST PUSH1 0x1 DUP2 ADD SWAP1 POP PUSH2 0x117E JUMP JUMPDEST POP POP JUMP JUMPDEST PUSH1 0x1F DUP3 GT ISZERO PUSH2 0x11E1 JUMPI PUSH2 0x11B2 DUP2 PUSH2 0x1081 JUMP JUMPDEST PUSH2 0x11BB DUP5 PUSH2 0x1096 JUMP JUMPDEST DUP2 ADD PUSH1 0x20 DUP6 LT ISZERO PUSH2 0x11CA JUMPI DUP2 SWAP1 POP JUMPDEST PUSH2 0x11DE PUSH2 0x11D6 DUP6 PUSH2 0x1096 JUMP JUMPDEST DUP4 ADD DUP3 PUSH2 0x117D JUMP JUMPDEST POP POP JUMPDEST POP POP POP JUMP JUMPDEST PUSH1 0x0 DUP3 DUP3 SHR SWAP1 POP SWAP3 SWAP2 POP POP JUMP JUMPDEST PUSH1 0x0 PUSH2 0x1204 PUSH1 0x0 NOT DUP5 PUSH1 0x8 MUL PUSH2 0x11E6 JUMP JUMPDEST NOT DUP1 DUP4 AND SWAP2 POP POP SWAP3 SWAP2 POP POP JUMP JUMPDEST PUSH1 0x0 PUSH2 0x121D DUP4 DUP4 PUSH2 0x11F3 JUMP JUMPDEST SWAP2 POP DUP3 PUSH1 0x2 MUL DUP3 OR SWAP1 POP SWAP3 SWAP2 POP POP JUMP JUMPDEST PUSH2 0x1236 DUP3 PUSH2 0xBC3 JUMP JUMPDEST PUSH8 0xFFFFFFFFFFFFFFFF DUP2 GT ISZERO PUSH2 0x124F JUMPI PUSH2 0x124E PUSH2 0x901 JUMP JUMPDEST JUMPDEST PUSH2 0x1259 DUP3 SLOAD PUSH2 0x1050 JUMP JUMPDEST PUSH2 0x1264 DUP3 DUP3 DUP6 PUSH2 0x11A0 JUMP JUMPDEST PUSH1 0x0 PUSH1 0x20 SWAP1 POP PUSH1 0x1F DUP4 GT PUSH1 0x1 DUP2 EQ PUSH2 0x1297 JUMPI PUSH1 0x0 DUP5 ISZERO PUSH2 0x1285 JUMPI DUP3 DUP8 ADD MLOAD SWAP1 POP JUMPDEST PUSH2 0x128F DUP6 DUP3 PUSH2 0x1211 JUMP JUMPDEST DUP7 SSTORE POP PUSH2 0x12F7 JUMP JUMPDEST PUSH1 0x1F NOT DUP5 AND PUSH2 0x12A5 DUP7 PUSH2 0x1081 JUMP JUMPDEST PUSH1 0x0 JUMPDEST DUP3 DUP2 LT ISZERO PUSH2 0x12CD JUMPI DUP5 DUP10 ADD MLOAD DUP3 SSTORE PUSH1 0x1 DUP3 ADD SWAP2 POP PUSH1 0x20 DUP6 ADD SWAP5 POP PUSH1 0x20 DUP2 ADD SWAP1 POP PUSH2 0x12A8 JUMP JUMPDEST DUP7 DUP4 LT ISZERO PUSH2 0x12EA JUMPI DUP5 DUP10 ADD MLOAD PUSH2 0x12E6 PUSH1 0x1F DUP10 AND DUP3 PUSH2 0x11F3 JUMP JUMPDEST DUP4 SSTORE POP JUMPDEST PUSH1 0x1 PUSH1 0x2 DUP9 MUL ADD DUP9 SSTORE POP POP POP JUMPDEST POP POP POP POP POP POP JUMP JUMPDEST PUSH1 0x0 PUSH1 0x40 DUP3 ADD SWAP1 POP PUSH2 0x1314 PUSH1 0x0 DUP4 ADD DUP6 PUSH2 0xEF2 JUMP JUMPDEST PUSH2 0x1321 PUSH1 0x20 DUP4 ADD DUP5 PUSH2 0xEE3 JUMP JUMPDEST SWAP4 SWAP3 POP POP POP JUMP INVALID LOG2 PUSH5 0x6970667358 0x22 SLT KECCAK256 0xEE POP MOD PUSH19 0xBE8BD53F6DFCB70116BD6176D9D243D4B73A11 DIV BLOCKHASH RETURN MULMOD PUSH5 0xFA88C0FC64 PUSH20 0x6F6C634300081300330000000000000000000000 "},"methodIdentifiers":{"documents(string)":"b3dd697b","getDocument(string)":"7ccb6a64","getUserDocuments(address)":"90a4b162","userDocuments(address,uint256)":"577a1b92","verifyDocument(string,bool,string)":"46ac0410"}}}}}