{
  "_format": "hh-sol-artifact-1",
  "contractName": "DocumentVerification",
  "sourceName": "contracts/DocumentVerification.sol",
  "abi": [
    {
      "anonymous": false,
      "inputs": [
        {
          "indexed": true,
          "internalType": "string",
          "name": "documentHash",
          "type": "string"
        },
        {
          "indexed": true,
          "internalType": "address",
          "name": "owner",
          "type": "address"
        },
        {
          "indexed": false,
          "internalType": "bool",
          "name": "isValid",
          "type": "bool"
        },
        {
          "indexed": false,
          "internalType": "uint256",
          "name": "timestamp",
          "type": "uint256"
        }
      ],
      "name": "DocumentVerified",
      "type": "event"
    },
    {
      "inputs": [
        {
          "internalType": "string",
          "name": "",
          "type": "string"
        }
      ],
      "name": "documents",
      "outputs": [
        {
          "internalType": "string",
          "name": "documentHash",
          "type": "string"
        },
        {
          "internalType": "address",
          "name": "owner",
          "type": "address"
        },
        {
          "internalType": "uint256",
          "name": "timestamp",
          "type": "uint256"
        },
        {
          "internalType": "bool",
          "name": "isValid",
          "type": "bool"
        },
        {
          "internalType": "string",
          "name": "verificationDetails",
          "type": "string"
        }
      ],
      "stateMutability": "view",
      "type": "function"
    },
    {
      "inputs": [
        {
          "internalType": "string",
          "name": "documentHash",
          "type": "string"
        }
      ],
      "name": "getDocument",
      "outputs": [
        {
          "components": [
            {
              "internalType": "string",
              "name": "documentHash",
              "type": "string"
            },
            {
              "internalType": "address",
              "name": "owner",
              "type": "address"
            },
            {
              "internalType": "uint256",
              "name": "timestamp",
              "type": "uint256"
            },
            {
              "internalType": "bool",
              "name": "isValid",
              "type": "bool"
            },
            {
              "internalType": "string",
              "name": "verificationDetails",
              "type": "string"
            }
          ],
          "internalType": "struct DocumentVerification.Document",
          "name": "",
          "type": "tuple"
        }
      ],
      "stateMutability": "view",
      "type": "function"
    },
    {
      "inputs": [
        {
          "internalType": "address",
          "name": "user",
          "type": "address"
        }
      ],
      "name": "getUserDocuments",
      "outputs": [
        {
          "internalType": "string[]",
          "name": "",
          "type": "string[]"
        }
      ],
      "stateMutability": "view",
      "type": "function"
    },
    {
      "inputs": [
        {
          "internalType": "address",
          "name": "",
          "type": "address"
        },
        {
          "internalType": "uint256",
          "name": "",
          "type": "uint256"
        }
      ],
      "name": "userDocuments",
      "outputs": [
        {
          "internalType": "string",
          "name": "",
          "type": "string"
        }
      ],
      "stateMutability": "view",
      "type": "function"
    },
    {
      "inputs": [
        {
          "internalType": "string",
          "name": "documentHash",
          "type": "string"
        },
        {
          "internalType": "bool",
          "name": "isValid",
          "type": "bool"
        },
        {
          "internalType": "string",
          "name": "verificationDetails",
          "type": "string"
        }
      ],
      "name": "verifyDocument",
      "outputs": [],
      "stateMutability": "nonpayable",
      "type": "function"
    }
  ],
  "bytecode": "0x608060405234801561001057600080fd5b5061135e806100206000396000f3fe608060405234801561001057600080fd5b50600436106100575760003560e01c806346ac04101461005c578063577a1b92146100785780637ccb6a64146100a857806390a4b162146100d8578063b3dd697b14610108575b600080fd5b61007660048036038101906100719190610a64565b61013c565b005b610092600480360381019061008d9190610b83565b61035a565b60405161009f9190610c42565b60405180910390f35b6100c260048036038101906100bd9190610c64565b610413565b6040516100cf9190610da1565b60405180910390f35b6100f260048036038101906100ed9190610dc3565b6105ea565b6040516100ff9190610eb2565b60405180910390f35b610122600480360381019061011d9190610c64565b610702565b604051610133959493929190610f01565b60405180910390f35b6000835111610180576040517f08c379a000000000000000000000000000000000000000000000000000000000815260040161017790610fae565b60405180910390fd5b6040518060a001604052808481526020013373ffffffffffffffffffffffffffffffffffffffff1681526020014281526020018315158152602001828152506000846040516101cf919061100a565b908152602001604051809103902060008201518160000190816101f2919061122d565b5060208201518160010160006101000a81548173ffffffffffffffffffffffffffffffffffffffff021916908373ffffffffffffffffffffffffffffffffffffffff1602179055506040820151816002015560608201518160030160006101000a81548160ff0219169083151502179055506080820151816004019081610279919061122d565b50905050600160003373ffffffffffffffffffffffffffffffffffffffff1673ffffffffffffffffffffffffffffffffffffffff168152602001908152602001600020839080600181540180825580915050600190039060005260206000200160009091909190915090816102ee919061122d565b503373ffffffffffffffffffffffffffffffffffffffff1683604051610314919061100a565b60405180910390207fc6c0381e12a4fb03527a52e993465a2c87fd5d7d3630818da2af5b66c6ac648d844260405161034d9291906112ff565b60405180910390a3505050565b6001602052816000526040600020818154811061037657600080fd5b9060005260206000200160009150915050805461039290611050565b80601f01602080910402602001604051908101604052809291908181526020018280546103be90611050565b801561040b5780601f106103e05761010080835404028352916020019161040b565b820191906000526020600020905b8154815290600101906020018083116103ee57829003601f168201915b505050505081565b61041b61088b565b60008260405161042b919061100a565b90815260200160405180910390206040518060a001604052908160008201805461045490611050565b80601f016020809104026020016040519081016040528092919081815260200182805461048090611050565b80156104cd5780601f106104a2576101008083540402835291602001916104cd565b820191906000526020600020905b8154815290600101906020018083116104b057829003601f168201915b505050505081526020016001820160009054906101000a900473ffffffffffffffffffffffffffffffffffffffff1673ffffffffffffffffffffffffffffffffffffffff1673ffffffffffffffffffffffffffffffffffffffff168152602001600282015481526020016003820160009054906101000a900460ff1615151515815260200160048201805461056190611050565b80601f016020809104026020016040519081016040528092919081815260200182805461058d90611050565b80156105da5780601f106105af576101008083540402835291602001916105da565b820191906000526020600020905b8154815290600101906020018083116105bd57829003601f168201915b5050505050815250509050919050565b6060600160008373ffffffffffffffffffffffffffffffffffffffff1673ffffffffffffffffffffffffffffffffffffffff168152602001908152602001600020805480602002602001604051908101604052809291908181526020016000905b828210156106f757838290600052602060002001805461066a90611050565b80601f016020809104026020016040519081016040528092919081815260200182805461069690611050565b80156106e35780601f106106b8576101008083540402835291602001916106e3565b820191906000526020600020905b8154815290600101906020018083116106c657829003601f168201915b50505050508152602001906001019061064b565b505050509050919050565b60008180516020810182018051848252602083016020850120818352809550505050505060009150905080600001805461073b90611050565b80601f016020809104026020016040519081016040528092919081815260200182805461076790611050565b80156107b45780601f10610789576101008083540402835291602001916107b4565b820191906000526020600020905b81548152906001019060200180831161079757829003601f168201915b5050505050908060010160009054906101000a900473ffffffffffffffffffffffffffffffffffffffff16908060020154908060030160009054906101000a900460ff169080600401805461080890611050565b80601f016020809104026020016040519081016040528092919081815260200182805461083490611050565b80156108815780601f1061085657610100808354040283529160200191610881565b820191906000526020600020905b81548152906001019060200180831161086457829003601f168201915b5050505050905085565b6040518060a0016040528060608152602001600073ffffffffffffffffffffffffffffffffffffffff16815260200160008152602001600015158152602001606081525090565b6000604051905090565b600080fd5b600080fd5b600080fd5b600080fd5b6000601f19601f8301169050919050565b7f4e487b7100000000000000000000000000000000000000000000000000000000600052604160045260246000fd5b610939826108f0565b810181811067ffffffffffffffff8211171561095857610957610901565b5b80604052505050565b600061096b6108d2565b90506109778282610930565b919050565b600067ffffffffffffffff82111561099757610996610901565b5b6109a0826108f0565b9050602081019050919050565b82818337600083830152505050565b60006109cf6109ca8461097c565b610961565b9050828152602081018484840111156109eb576109ea6108eb565b5b6109f68482856109ad565b509392505050565b600082601f830112610a1357610a126108e6565b5b8135610a238482602086016109bc565b91505092915050565b60008115159050919050565b610a4181610a2c565b8114610a4c57600080fd5b50565b600081359050610a5e81610a38565b92915050565b600080600060608486031215610a7d57610a7c6108dc565b5b600084013567ffffffffffffffff811115610a9b57610a9a6108e1565b5b610aa7868287016109fe565b9350506020610ab886828701610a4f565b925050604084013567ffffffffffffffff811115610ad957610ad86108e1565b5b610ae5868287016109fe565b9150509250925092565b600073ffffffffffffffffffffffffffffffffffffffff82169050919050565b6000610b1a82610aef565b9050919050565b610b2a81610b0f565b8114610b3557600080fd5b50565b600081359050610b4781610b21565b92915050565b6000819050919050565b610b6081610b4d565b8114610b6b57600080fd5b50565b600081359050610b7d81610b57565b92915050565b60008060408385031215610b9a57610b996108dc565b5b6000610ba885828601610b38565b9250506020610bb985828601610b6e565b9150509250929050565b600081519050919050565b600082825260208201905092915050565b60005b83811015610bfd578082015181840152602081019050610be2565b60008484015250505050565b6000610c1482610bc3565b610c1e8185610bce565b9350610c2e818560208601610bdf565b610c37816108f0565b840191505092915050565b60006020820190508181036000830152610c5c8184610c09565b905092915050565b600060208284031215610c7a57610c796108dc565b5b600082013567ffffffffffffffff811115610c9857610c976108e1565b5b610ca4848285016109fe565b91505092915050565b600082825260208201905092915050565b6000610cc982610bc3565b610cd38185610cad565b9350610ce3818560208601610bdf565b610cec816108f0565b840191505092915050565b610d0081610b0f565b82525050565b610d0f81610b4d565b82525050565b610d1e81610a2c565b82525050565b600060a0830160008301518482036000860152610d418282610cbe565b9150506020830151610d566020860182610cf7565b506040830151610d696040860182610d06565b506060830151610d7c6060860182610d15565b5060808301518482036080860152610d948282610cbe565b9150508091505092915050565b60006020820190508181036000830152610dbb8184610d24565b905092915050565b600060208284031215610dd957610dd86108dc565b5b6000610de784828501610b38565b91505092915050565b600081519050919050565b600082825260208201905092915050565b6000819050602082019050919050565b6000610e288383610cbe565b905092915050565b6000602082019050919050565b6000610e4882610df0565b610e528185610dfb565b935083602082028501610e6485610e0c565b8060005b85811015610ea05784840389528151610e818582610e1c565b9450610e8c83610e30565b925060208a01995050600181019050610e68565b50829750879550505050505092915050565b60006020820190508181036000830152610ecc8184610e3d565b905092915050565b610edd81610b0f565b82525050565b610eec81610b4d565b82525050565b610efb81610a2c565b82525050565b600060a0820190508181036000830152610f1b8188610c09565b9050610f2a6020830187610ed4565b610f376040830186610ee3565b610f446060830185610ef2565b8181036080830152610f568184610c09565b90509695505050505050565b7f446f63756d656e7420686173682063616e6e6f7420626520656d707479000000600082015250565b6000610f98601d83610bce565b9150610fa382610f62565b602082019050919050565b60006020820190508181036000830152610fc781610f8b565b9050919050565b600081905092915050565b6000610fe482610bc3565b610fee8185610fce565b9350610ffe818560208601610bdf565b80840191505092915050565b60006110168284610fd9565b915081905092915050565b7f4e487b7100000000000000000000000000000000000000000000000000000000600052602260045260246000fd5b6000600282049050600182168061106857607f821691505b60208210810361107b5761107a611021565b5b50919050565b60008190508160005260206000209050919050565b60006020601f8301049050919050565b600082821b905092915050565b6000600883026110e37fffffffffffffffffffffffffffffffffffffffffffffffffffffffffffffffff826110a6565b6110ed86836110a6565b95508019841693508086168417925050509392505050565b6000819050919050565b600061112a61112561112084610b4d565b611105565b610b4d565b9050919050565b6000819050919050565b6111448361110f565b61115861115082611131565b8484546110b3565b825550505050565b600090565b61116d611160565b61117881848461113b565b505050565b5b8181101561119c57611191600082611165565b60018101905061117e565b5050565b601f8211156111e1576111b281611081565b6111bb84611096565b810160208510156111ca578190505b6111de6111d685611096565b83018261117d565b50505b505050565b600082821c905092915050565b6000611204600019846008026111e6565b1980831691505092915050565b600061121d83836111f3565b9150826002028217905092915050565b61123682610bc3565b67ffffffffffffffff81111561124f5761124e610901565b5b6112598254611050565b6112648282856111a0565b600060209050601f8311600181146112975760008415611285578287015190505b61128f8582611211565b8655506112f7565b601f1984166112a586611081565b60005b828110156112cd578489015182556001820191506020850194506020810190506112a8565b868310156112ea57848901516112e6601f8916826111f3565b8355505b6001600288020188555050505b505050505050565b60006040820190506113146000830185610ef2565b6113216020830184610ee3565b939250505056fea2646970667358221220ee500672be8bd53f6dfcb70116bd6176d9d243d4b73a110440f30964fa88c0fc64736f6c63430008130033",
  "linkReferences": {},
  "deployedLinkReferences": {}
}